{
  "contractName": "Tdl",
  "abi": [
    {
      "inputs": [],
      "stateMutability": "nonpayable",
      "type": "constructor"
    },
    {
      "inputs": [],
      "name": "currentTokens",
      "outputs": [
        {
          "internalType": "uint256",
          "name": "",
          "type": "uint256"
        }
      ],
      "stateMutability": "view",
      "type": "function",
      "constant": true
    },
    {
      "inputs": [],
      "name": "name",
      "outputs": [
        {
          "internalType": "string",
          "name": "",
          "type": "string"
        }
      ],
      "stateMutability": "view",
      "type": "function",
      "constant": true
    },
    {
      "inputs": [
        {
          "internalType": "string",
          "name": "person",
          "type": "string"
        }
      ],
      "name": "set",
      "outputs": [],
      "stateMutability": "nonpayable",
      "type": "function"
    },
    {
      "inputs": [
        {
          "internalType": "uint256",
          "name": "decrementBy",
          "type": "uint256"
        }
      ],
      "name": "decrement",
      "outputs": [],
      "stateMutability": "nonpayable",
      "type": "function"
    },
    {
      "inputs": [
        {
          "internalType": "uint256",
          "name": "incrementBy",
          "type": "uint256"
        }
      ],
      "name": "increment",
      "outputs": [],
      "stateMutability": "nonpayable",
      "type": "function"
    }
  ],
  "bytecode": "0x608060405234801561001057600080fd5b506040518060400160405280600781526020017f556e6b6e6f776e000000000000000000000000000000000000000000000000008152506000908051906020019061005c92919061006a565b50600c60018190555061016e565b8280546100769061013c565b90600052602060002090601f01602090048101928261009857600085556100df565b82601f106100b157805160ff19168380011785556100df565b828001600101855582156100df579182015b828111156100de5782518255916020019190600101906100c3565b5b5090506100ec91906100f0565b5090565b5b808211156101095760008160009055506001016100f1565b5090565b7f4e487b7100000000000000000000000000000000000000000000000000000000600052602260045260246000fd5b6000600282049050600182168061015457607f821691505b602082108114156101685761016761010d565b5b50919050565b6106bc8061017d6000396000f3fe608060405234801561001057600080fd5b5060043610610074576000357c01000000000000000000000000000000000000000000000000000000009004806306fdde03146100795780633a9ebefd146100975780634ed3885e146100b35780637cf5dab0146100cf578063f530b5e8146100eb575b600080fd5b610081610109565b60405161008e919061032b565b60405180910390f35b6100b160048036038101906100ac9190610397565b610197565b005b6100cd60048036038101906100c891906104f9565b6101b3565b005b6100e960048036038101906100e49190610397565b6101cd565b005b6100f36101e9565b6040516101009190610551565b60405180910390f35b600080546101169061059b565b80601f01602080910402602001604051908101604052809291908181526020018280546101429061059b565b801561018f5780601f106101645761010080835404028352916020019161018f565b820191906000526020600020905b81548152906001019060200180831161017257829003601f168201915b505050505081565b80600160008282546101a991906105fc565b9250508190555050565b80600090805190602001906101c99291906101ef565b5050565b80600160008282546101df9190610630565b9250508190555050565b60015481565b8280546101fb9061059b565b90600052602060002090601f01602090048101928261021d5760008555610264565b82601f1061023657805160ff1916838001178555610264565b82800160010185558215610264579182015b82811115610263578251825591602001919060010190610248565b5b5090506102719190610275565b5090565b5b8082111561028e576000816000905550600101610276565b5090565b600081519050919050565b600082825260208201905092915050565b60005b838110156102cc5780820151818401526020810190506102b1565b838111156102db576000848401525b50505050565b6000601f19601f8301169050919050565b60006102fd82610292565b610307818561029d565b93506103178185602086016102ae565b610320816102e1565b840191505092915050565b6000602082019050818103600083015261034581846102f2565b905092915050565b6000604051905090565b600080fd5b600080fd5b6000819050919050565b61037481610361565b811461037f57600080fd5b50565b6000813590506103918161036b565b92915050565b6000602082840312156103ad576103ac610357565b5b60006103bb84828501610382565b91505092915050565b600080fd5b600080fd5b7f4e487b7100000000000000000000000000000000000000000000000000000000600052604160045260246000fd5b610406826102e1565b810181811067ffffffffffffffff82111715610425576104246103ce565b5b80604052505050565b600061043861034d565b905061044482826103fd565b919050565b600067ffffffffffffffff821115610464576104636103ce565b5b61046d826102e1565b9050602081019050919050565b82818337600083830152505050565b600061049c61049784610449565b61042e565b9050828152602081018484840111156104b8576104b76103c9565b5b6104c384828561047a565b509392505050565b600082601f8301126104e0576104df6103c4565b5b81356104f0848260208601610489565b91505092915050565b60006020828403121561050f5761050e610357565b5b600082013567ffffffffffffffff81111561052d5761052c61035c565b5b610539848285016104cb565b91505092915050565b61054b81610361565b82525050565b60006020820190506105666000830184610542565b92915050565b7f4e487b7100000000000000000000000000000000000000000000000000000000600052602260045260246000fd5b600060028204905060018216806105b357607f821691505b602082108114156105c7576105c661056c565b5b50919050565b7f4e487b7100000000000000000000000000000000000000000000000000000000600052601160045260246000fd5b600061060782610361565b915061061283610361565b925082821015610625576106246105cd565b5b828203905092915050565b600061063b82610361565b915061064683610361565b9250827fffffffffffffffffffffffffffffffffffffffffffffffffffffffffffffffff0382111561067b5761067a6105cd565b5b82820190509291505056fea26469706673582212201d62291361e71172bcae4993fa7a1649c7fddf334f4a0d15624c9de5e194b2e464736f6c634300080b0033",
  "immutableReferences": {},
  "source": "pragma solidity ^0.8.11;\r\n  \r\ncontract Tdl{\r\n    string public name ;\r\n    uint public currentTokens ;\r\n\r\n    constructor() public{\r\n        name = \"Unknown\" ;\r\n        currentTokens = 12 ;\r\n    }\r\n\r\n    function set(string memory person) public{\r\n        name = person;\r\n    }\r\n\r\n    function decrement(uint decrementBy) public{\r\n        currentTokens -= decrementBy ;\r\n    }\r\n\r\n\r\n    function increment(uint incrementBy) public{\r\n        currentTokens += incrementBy ;\r\n    }\r\n\r\n}",
  "sourcePath": "C:\\Users\\brain\\Desktop\\MEIC-T\\CCU\\Teste\\TDL\\ccu\\contracts\\Tdl.sol",
  "compiler": {
    "name": "solc",
    "version": "0.8.11+commit.d7f03943.Emscripten.clang"
  },
  "schemaVersion": "3.4.4",
  "updatedAt": "2022-01-24T13:39:02.587Z",
  "networkType": "ethereum",
  "devdoc": {
    "kind": "dev",
    "methods": {},
    "version": 1
  },
  "userdoc": {
    "kind": "user",
    "methods": {},
    "version": 1
  }
}